:020000040800F2
:1000000048080020B5010008D9210008D1210008C6
:10001000D521000895030008812300080000000096
:10002000000000000000000000000000692300083C
:10003000A503000800000000652300086D230008E8
:10004000CF010008CF010008CF010008CF01000850
:10005000CF010008CF010008CF010008CF01000840
:10006000CF010008CF010008CF0100089903000864
:10007000CF010008CF010008CF010008CF01000820
:10008000CF010008CF010008CF010008CF01000810
:10009000CF010008CF010008CF010008A903000824
:1000A000CF010008CF010008CF010008CF010008F0
:1000B00075230008CF010008CF010008CF01000818
:1000C000CF010008CF010008CF010008CF010008D0
:1000D000CF010008CF010008CF010008CF010008C0
:1000E000CF010008CF010008CF01000800F002F89E
:1000F00000F050F814A696E8000CB244B344DA4578
:1001000001D100F047F8BAE80F000FA696E83000DA
:10011000A5EB040504EB0607AAEB0704A7F101070A
:100120004FEA15154FEA3414A4F10104AC4201D38F
:1001300000F030F813F0010F18BFFB1A43F0010371
:1001400000F001F8DBE718474C2E00006C2E000091
:10015000103A24BF78C878C1FAD8520724BF30C8F3
:1001600030C144BF04680C60704700007047000055
:100170000023002400250026103A28BF78C1FBD8B0
:10018000520728BF30C148BF0B6070471FB51FBD65
:1001900010B510BD00F031F81146FFF7F7FF02F07F
:1001A000F1F800F04FF803B4FFF7F2FF03BC00F0E2
:1001B00057F800000948804709480047FEE7FEE776
:1001C000FEE7FEE7FEE7FEE7FEE7FEE7FEE7FEE707
:1001D00004480549054A064B704700007123000892
:1001E000ED000008480200204808002048040020D4
:1001F00048040020704770477047754600F02CF89F
:10020000AE4605006946534620F00700854618B003
:1002100020B5FFF7DDFFBDE820404FF000064FF0AE
:1002200000074FF000084FF0000BAC46ACE8C009E7
:10023000ACE8C009ACE8C009ACE8C00921F007018E
:100240008D46704710B50446AFF300802046BDE8E8
:100250001040FFF7A8BF000000487047480000208A
:1002600001491820ABBEFEE72600020070470000DF
:100270000146406A826A12F0500F03D0006A026B96
:10028000084610470168826A42F4007282628968F7
:1002900001F46021B1F5602F01D1017B11B100F0B3
:1002A00035B900BF816A21F480718162816AC90415
:1002B00048BF00F02BB9816A41F00101816200F072
:1002C00025B90000406A816A41F040018162C16A3B
:1002D00041F00401C16200F0F3B90000406A00F08F
:1002E000EDB90000B0B582B004460020019021684D
:1002F0008A68D2074BD1886840F00100886040F2DC
:100300004400C2F2000000684DF68361C4F21B3164
:10031000A0FB0101880C01900198A0B1019801385F
:100320000190019878B1019801380190019850B17D
:10033000019801380190019828B101980138019085
:1003400001980028EAD100F0FFFD21688968C907FB
:100350001CD1054603E000BF8068C00716D100F03D
:10036000F3FD411B20680329F6D38168C907F3D147
:10037000A06A40F01000A062E06A40F00100E06274
:10038000002084F82400012002B0B0BD002002B09B
:10039000B0BD0000FEE7000040F26C10C2F20000A9
:1003A00000F036BB7047000080B54FF4807000F05D
:1003B000B1FC4FF40070BDE8804000F0ABBC000021
:1003C000EFF3108072B600BFFEE7000070B581B099
:1003D0000022009290F82420012A03D1022108462D
:1003E00001B070BD4A680123062A02EB820E80F834
:1003F000243007D8D0F800C06FF004030CF13406A5
:100400000CE000BFD0F800C00C2A87BF0CF12C060E
:100410006FF040030CF130066FF022030EEB030285
:100420001F23346803FA02F50B6824EA050503FA72
:1004300002F22A433260092B03EB43021AD9DCF89B
:100440000C601E3A072589689540AE43914023F021
:1004500001023143102ACCF80C1015D142F20041B0
:10046000C4F201018C4517D0816A41F020018162FC
:1004700001210AE0DCF81030072689689640B34372
:1004800091401943CCF810100021002280F824205C
:10049000084601B070BD00BF89680902F4D4DCF8D9
:1004A0000810102B41F40001CCF80810ECD140F2F8
:1004B0004401C2F2000109684DF68362C4F21B32A6
:1004C000A1FB0212910C01EB8101490000910099FE
:1004D0000029D9D000990139009100990029D3D081
:1004E00000990139009100990029CDD00099013976
:1004F000009100990029C7D0009901390091009915
:1005000000294FF00001E5D1BFE70000006842F28A
:100510000041C4F20101884218BF7047F0B540F2B3
:10052000A800C2F20000002140F2000E8160C1600C
:10053000C2F2000EB0F85820DEF8003040F2141C71
:100540000026C2F2000CDEE905459342D8BF012621
:10055000CCF800608768934237448760C768D8BF8B
:100560002744C760B0F85A20002406619342D8BFE0
:100570000124CCF804408668934226448660C6680D
:10058000D8BF2E44C660B0F85C204461002493427A
:10059000D8BF0124CCF80840856893422544856083
:1005A000DEF81C50C668D8BF2E44C660B0F85E2086
:1005B000846100249342D8BF0124CCF80C408568A4
:1005C000934225448560DEF82050C668D8BF2E448B
:1005D000C660B0F86020C46100249342D8BF0124F3
:1005E000CCF810408568934225448560DEF824509D
:1005F000C668D8BF2E44C660B0F8622004620024EA
:100600009342D8BF0124CCF8144085689342254416
:100610008560DEF82850C668D8BF2E44C660B0F8A2
:100620006420446200249342D8BF0124CCF81840CF
:100630008568934225448560DEF82C50C668D8BF93
:100640002E44C660B0F86620846200249342D8BF6E
:100650000124CCF81C408568934225448560DEF86F
:100660003050C668D8BF2E44C660B0F86820C46257
:1006700000249342D8BF0124CCF8204085689342DF
:1006800025448560DEF83450C668D8BF2E44C66065
:10069000B0F86A2004639342D8BF0121CCF824103B
:1006A000876893420F448760DEF83870C668D8BF09
:1006B0003E44C6604163BDE8F040704770470000AB
:1006C00070470000002804BF01207047B0B5044601
:1006D000806A28B121688868C0070CD115E000BF86
:1006E0000020E06284F82400204600F097F821689A
:1006F0008868C00709D0886820F00100886000F091
:1007000023FC21688A68D20726D1A06AC0063AD4A1
:10071000A06A41F2021290430230A062E069D4E97B
:10072000013240EA030C531EB3FA83F35D0913460A
:10073000B2F5807F18BF2B02207D257B01284CEA73
:1007400045002CD135B3A56A45F02005A562E56AC0
:1007500045F00105E56222E0054602E08868C00731
:10076000D3D000F0F1FB401B21680328F6D3886842
:10077000C007F3D0A06A40F01000A062E06A40F029
:100780000100E062A06AA06A40F01000A0620120AF
:10079000B0BD00BFA56903EB4533A3F5C0534D6859
:1007A000B2F5807F25F4694543EA05034B608B6809
:1007B0004FF2FD75CFF6E17503EA050343EA000346
:1007C0008B6001D0012A07D122690023CFF6F07394
:1007D00003EB025201E000BF0022CB6A23F4700356
:1007E0001A43CA62896840F6FE62CFF61F72114052
:1007F000814207D10020E062A16A012262F3010177
:10080000A162B0BDA06A40F0100020F00200A0621A
:10081000E06A40F00100E0620120B0BD2DE9F04146
:1008200086B040F600050446C4F20105006805F5EF
:10083000E051002788420597CDE90377029703D05E
:1008400006B0BDE8F08100BF41F21800C4F202001A
:1008500001680DF1080841F4007101600168032688
:1008600001F4007101910199016841F004010160F6
:10087000016801F0040101910199016841F008014A
:1008800001600068414600F0080001900198FF20D7
:1008900002902846039600F049FA05F5806041462B
:1008A000CDE9026600F042FA40F26C150820C2F26F
:1008B0000005C4F202004FF48072C5E9000705F19B
:1008C000100080214FF480632026CCC02846C5E963
:1008D000027100F06DF9002818BFFFF771FD256265
:1008E0006C6206B0BDE8F081F0B581B0036842F6F5
:1008F0000006C4F20106B34205D042F20046C4F23B
:100900000106B3420AD142F20443C4F201031B6858
:1009100013F4702F02D0012001B0F0BD90F8243004
:10092000012B03D1022001B0F0BD00BF0D46012113
:10093000174680F824100646FFF7D4FC30B100209B
:1009400086F82400012001B0F0BD00BF42F204404F
:100950003168B36AC4F20100324640F60176B3430F
:1009600000F57F7603F58073B142936244D0906ABC
:1009700020F4801090624868400504D5906A0123F5
:1009800063F30D309062936A0020DB044FF00003A4
:1009900044BFD36A23F00603D36282F82400106AAE
:1009A00040F2712340F2DD26C0F60003C0F60006D7
:1009B00040F2C524C0F60004C0E90A366FF0020315
:1009C00004630B608B68144643F480738B604C3176
:1009D0002A463B4600F02EF92068816801F4602227
:1009E0008168B2F5602F0CBF41F4A00141F4801181
:1009F0008160002001B0F0BD036813F4702FB6D001
:100A0000936A43F48013936200684005B6D4BAE752
:100A100010B5D0E90FCE0168DCF800300A6823FA7F
:100A20000EF35C072AD512F0040427D00A68920658
:100A300003D40A6822F004020A602F22C4F20202E0
:100A4000914240F20402C4F202025BDD3023C4F2A0
:100A50000203994272D04423C4F20203994273D034
:100A60005823C4F20203994240F07A804FF4802365
:100A70001360C16A002940F098806FE09C0727D579
:100A800012F0020424D00A68920606D40A6822F002
:100A90000A020A60012280F821202F22C4F20202F9
:100AA000914240F20402C4F202023BDD3023C4F260
:100AB0000203994260D04423C4F2020399425FD0FA
:100AC0005823C4F20203994260D14FF4003365E029
:100AD0001B0743D512F0080208BF10BD0A6822F0B8
:100AE0000E020A60012101FA0EF2CCF804208163A3
:100AF00080F82110016B0022002980F8202054D1B9
:100B00002CE000BF0823C4F20203994222D01C2328
:100B1000C4F20203994223D140231360C16A002921
:100B200043D11BE00823C4F2020399422CD01C23BA
:100B3000C4F20203994229D120232FE04FF48063AD
:100B40001360C16A89BB09E04FF480431360C16A36
:100B500059BB03E004231360C16A31BB10BD00BF61
:100B600002F168044FF08063A14208BF4FF4800394
:100B70001360C16AC9B9F1E74FF400730EE000BF1A
:100B80004FF400530AE000BF022307E002F16804BB
:100B90004FF00073A14208BF4FF400131360816A45
:100BA0000022002980F82020D8D0BDE81040084756
:100BB000014600284FF0010008BF70472DE9F043BF
:100BC000D1F800C04FF6F873CBF6FD734CF6CD426A
:100BD0006344CCF6CC42A3FB02236FF0030202EA8B
:100BE00093020023C4F2020301F10C08C1E90F32A1
:100BF0000222D1E9019E98E8F00181F82120DCF879
:100C0000002043F6F0739A4342EA090242EA0E02D8
:100C100022432A4332433A4342EA0802CCF80020F6
:100C200000228A6381F8210081F820200020BDE89D
:100C3000F043704790F820C0BCF1010F04BF0220C0
:100C40007047F0B54FF0010E80F820E090F821C019
:100C5000BCF1010F26D14FF0020C80F821C04FF0FB
:100C6000000CC0F838C0D0E900C4C56AC66BDCF817
:100C70000070102C27F00107CCF80070006C0EFA01
:100C800000F070600846CCF8043004BF10460A46F5
:100C9000CCF80800CCF80C20DCF8000045B140F09E
:100CA0000E000DE0002180F820100220F0BD00BFF2
:100CB00020F00400CCF80000DCF8000040F00A004E
:100CC000CCF80000DCF8000040F00100CCF8000097
:100CD0000020F0BD10B5044600F036F940F2A8013E
:100CE000C2F20001B4F5807F486509D0B4F5007FF9
:100CF0000ED14A68821A0A2A0AD9012206E000BFE8
:100D00004A68821A0B2A38BF10BD02220A70486056
:100D100010BD000040F21441C4F201010A68024211
:100D200014BF08607047FFF7D5BF00002DE9F04FF2
:100D300082B00E68002E00F0FD8041F20042C4F245
:100D40000102042340F2004E904208BF03234FF6F5
:100D5000FF7CC4F2010E009300240123C1F2100CA9
:100D60004FF0000A4FF000094BE000BF41F20002D3
:100D7000C4F20102009F904208BF022704F00C0356
:100D80000F229A402BEA020207FA03F34FEA9A0570
:100D90001A4346F825204E6840F20C45F202DEF870
:100DA000082054BF22EA080242EA0802C4F2010500
:100DB000CEF808202A68B30254BF22EA080242EAA9
:100DC00008022A60B303DEF8042054BF22EA0802B6
:100DD00042EA0802F303CEF80420DEF800204FF0C8
:100DE000010354BF22EA080242EA0802CEF80020BA
:100DF0000E680AF1010A36FA0AF204F1040400F05E
:100E0000998003FA0AFB16EA0B08F1D04E68664592
:100E100012DC122E56D8DFE806F0350B4D49555539
:100E2000555555555555555555555545510000BFC6
:100E3000D1F80C9046E000BF4FF6FF72C1F22102DC
:100E400096420FDC0022C1F2110296421AD0002213
:100E5000C1F21202964215D00022C1F2210296423E
:100E600010D02FE00022C1F2220296420AD00022C6
:100E7000C1F23102964205D00022C1F232029642FE
:100E800020D100BF8A684AB1012A14BFC0F814B04B
:100E9000C0F810B04FF0080914E000BF4FF004098B
:100EA00010E000BFCA6802F104090BE04FF000092E
:100EB00008E000BFCA6802F1080903E0CA6802F14D
:100EC0000C0900BF02462646B8F5807F24BF0432D5
:100ED000203E17680F25B54027EA050509FA06F6F2
:100EE00035431560CA79D2067FF582AF41F2180307
:100EF000C4F202031A68AEF57E7642F001021A606F
:100F00001A6802F001020192019A2AF0030256F8CF
:100F100002B040F60002C4F20102904208D040F64E
:100F20000042C4F2010290427FF420AF012725E77E
:100F3000002723E702B0BDE8F08F0000002A08BFB9
:100F4000090401617047000040F24020C2F2000035
:100F50000068704740F23C0040F24021C2F20000BD
:100F6000C2F2000100780A6810440860704700006F
:100F700080B542F20000C4F20200016841F01001A5
:100F80000160032000F08CF80F2000F005F800F05D
:100F900027F8002080BD000070B540F23C06C2F288
:100FA000000640F244013278C2F200014FF47A7335
:100FB0000968B3FBF2F20446B1FBF2F1084600F017
:100FC000DFFB0F2C4FF0010508D838B94FF0FF3088
:100FD00021460022002500F037F87460284670BDD5
:100FE00082B041F21800C4F202000168022241F00E
:100FF00001010160016801F001010191019941685D
:1010000041F080514160406800F0805000900098AD
:101010000420C4F20100016862F31A61016002B0A9
:1010200070470000002848BF704700F01F010122F0
:1010300002FA01F11C2202EAD0004EF20012CEF2B6
:10104000000281507047000010B54EF60C5CCEF2E5
:10105000000CDCF80030C3F3022E8EF00704042CE1
:1010600028BF0424BEF103034FF0FF3E0EFA04F440
:1010700038BF0023A14399400EFA03F39A4311436A
:1010800000F00F0200F160430901043A03F56443E4
:101090006244002848BF02F10C03197010BD000023
:1010A0004EF60C51CEF200010A684FF6FF031A40CB
:1010B00060F30A2242F0806040F0FD7008607047E3
:1010C0002DE9F04182B00446007841F21C06C007C9
:1010D000C4F202064AD030685FEAC00808D430681B
:1010E00040F080503060306800F0805001900198EE
:1010F00047F20007C4F200073868C00512D4386808
:1011000040F480703860FFF71FFF05463868C0055F
:1011100008D4FFF719FF401B6428F7D9032002B059
:10112000BDE8F081706810F4407012D0616801F47D
:10113000407188420DD0706840F24042C4F24222B1
:10114000012320F4407113600023C0071360716015
:1011500026D17068616820F440700843B8F1000F30
:10116000706003D4306820F08050306020688107C0
:1011700007D556F8181CA26821F44041114346F8DF
:10118000181CC00607D556F8180CE16820F480003A
:10119000084346F8180C002002B0BDE8F08100BFFB
:1011A000FFF7D2FE054641F2883700BF706880071E
:1011B000CFD4FFF7C9FE401BB8424FF00300F5D96A
:1011C000EAE70000002804BF012070472DE9F04342
:1011D00081B042F20008C4F202080446D8F80000C8
:1011E0000D4600F0070081420CD9D8F8000020F02D
:1011F00007002843C8F80000D8F8000000F00700F6
:10120000A8426CD1206841F204098107C4F20209A6
:1012100017D5410705D5D9F8001041F4E061C9F8A8
:101220000010010705D5D9F8001041F46051C9F844
:101230000010D9F80010A26821F0F0011143C9F89C
:101240000010C00742D1D8F8000000F00700854226
:101250000CD2D8F8000020F007002843C8F800009E
:10126000D8F8000000F00700A84238D120684107F4
:1012700007D5D9F80010E26821F4E0611143C9F8FC
:101280000010000708D5D9F80000216920F460504B
:1012900040EAC100C9F80000D9F8002002F00C00B3
:1012A000082841F20020C0F27A004DD142F6847342
:1012B000C2F38341C0F60003595CD20338D440F630
:1012C0000010C0F23D0048433EE000BF606859F89E
:1012D000041C022808D0012826D1890306D4012045
:1012E00001B0BDE8F08300BF8901F8D5D9F800103E
:1012F00021F003010843C9F80000FFF725FE064668
:1013000041F28837D9F80000616800F00C00B0EBBA
:10131000810F98D0FFF718FE801BB842F2D9032046
:1013200001B0BDE8F08300BF8907D8D5DEE700BF74
:10133000D9F8002042F68273C2F34042C0F600039F
:101340009A5C4843B0FBF2F0D9F8001042F6727292
:10135000C1F30311C0F60002515C40F2440220FACE
:1013600001F140F24000C2F200000068C2F2000247
:101370001160FFF711FE002001B0BDE8F08300000E
:10138000002804BF012070472DE9F04182B00446D7
:10139000007841F20006C007C4F202060CD0706863
:1013A00000F00C00042840F081803068800303D5F1
:1013B0006068002800F04681207880071BD570689F
:1013C00010F00C0F09D0706800F00C00082840F0F5
:1013D00087807068C00300F183803068800703D580
:1013E0002069012840F02E813068616920F0F80002
:1013F00040EAC10030602078000713D4207840070D
:101400002CD4E569002D00F01881706800F00C0004
:10141000082840F0A780012D40F00481012002B08F
:10142000BDE8F081A069002800F084800020C4F2AB
:1014300042200121C0F88014FFF786FD054600BF59
:10144000706A800700F1B280FFF77EFD401B022822
:10145000F6D9032002B0BDE8F08100BFF0695FEA71
:10146000C00808D4F06940F08050F061F06900F0E5
:1014700080500090009847F20007C4F200073868D7
:10148000C00549D4386840F480703860FFF75CFDCF
:10149000054600BF3868C0053ED4FFF755FD401B28
:1014A0006428F7D9032002B0BDE8F081706800F02D
:1014B0000C00082803D17068C0033FF576AF61685F
:1014C0003068002900F00C81B1F5A02F00F00081F8
:1014D000B1F5803F40F01A8140F480301CE100BF3C
:1014E0002069002840F20000C4F2422000F0888009
:1014F00001210160FFF728FD054600BF3068800725
:101500003FF572AFFFF720FD401B0228F6D90320FC
:1015100002B0BDE8F08100BFE168306A002900F048
:101520009D80052900F09280012940F0AF8040F0B5
:101530000100B1E00020C4F242200021C0F8801474
:10154000FFF702FD054600BF706A80077FF556AFC2
:10155000FFF7FAFC401B0228F6D9032002B0BDE8D1
:10156000F08100BF0027C4F2422700203866FFF751
:10157000EBFC022D05460DD13068800140F1DE8084
:10158000FFF7E2FC401B02284FF00300F4D902B041
:10159000BDE8F081306880014FD5FFF7D5FC401BD6
:1015A00002284FF00300F5D9F1E700BF40F24400F4
:1015B000C2F20000006844F6D351C1F26201A0FB00
:1015C0000101480A019000BF00BF0198411E002898
:1015D00001913FF413AF00BF0198411E0028019113
:1015E0003FF40CAF00BF0198411E002801913FF469
:1015F00005AF00BF0198411E00280191E4D1FDE62E
:1016000000210160FFF7A0FC054600BF306880079D
:101610007FF5F1AEFFF798FC401B02284FF0030066
:10162000F4D9B4E77068216A00F480328A4209D1A3
:10163000616A00F47010884204D1002002B0BDE855
:10164000F08100BF012002B0BDE8F08140F004004D
:101650003062306A40F001001EE000BF20F001005F
:101660003062306A20F004003062FFF76DFC0546FE
:1016700041F28837306A800720D5FFF765FC401BB0
:10168000B8424FF00300F5D981E700BF20F0010018
:101690003062306A20F004003062FFF755FC0546E6
:1016A00041F28837306A800708D4FFF74DFC401BB1
:1016B000B842F7D9032002B0BDE8F081B8F1000FBD
:1016C0003FF59FAEF06920F08050F06199E600BFD1
:1016D00040F480203060306840F480301CE000BF6F
:1016E00020F480303060306820F480203060FFF7D4
:1016F0002BFC0546306880037FF55EAEFFF724FCC7
:10170000401B64284FF00300F4D940E720F48030F8
:101710003060306820F480203060FFF715FC05460B
:10172000306880033FF548AEFFF70EFC401B64288D
:10173000F6D9032002B0BDE8F08100BF206AB0F501
:10174000803F05D17168A26821F4003111437160B6
:101750007168626A21F474111143084370600120BA
:101760003866FFF7F1FB0446306880013FF565AF4E
:10177000FFF7EAFB001B02284FF00300F4D906E74D
:10178000411E0020B0EB116F1CBF012070474EF2CC
:101790001002CEF2000251604EF62351CEF200014B
:1017A000F0230B70072190601160704770470000B4
:1017B0007047000090F83C20012A04BF02207047C7
:1017C000B0B501F108053CCDD1E900CE23F47C533E
:1017D00022F470521A432EF4F0431A432CF4E043DF
:1017E0001A4324F4C0431A432A43C96922F48042AD
:1017F000036811435964002180F83C100020B0BDFB
:1018000090F83C20012A4FF0020236D010B580F843
:101810003D200268D2F804E0D2F808C00C682EF02F
:101820007003234340F2FF74C4F20004A2425360E9
:101830000ADCB2F1804F13D040F20043C4F200033F
:101840009A420DD011E000BF42F60043C4F20103FA
:101850009A4205D040F60003C4F200039A4204D134
:1018600049682CF08003194391600121002280F81F
:101870003D1080F83C20BDE8104010467047000045
:10188000002804BF0120704710B590F83D1031B911
:10189000002180F83C10044600F070F82046022138
:1018A00080F83D10016840F2FF740B68C4F2000438
:1018B00042F6004CA142C4F2010C15DCB1F1804F9C
:1018C0001AD040F20042C4F20002914214D0A14268
:1018D00018DCB1F1804F1DD040F20042C4F200028A
:1018E000914217D01AE000BF614505D040F60002D2
:1018F000C4F200029142EAD1826823F070031343DC
:10190000A142E6DD614505D040F60002C4F20002C6
:10191000914203D1026923F440731343846923F095
:101920008002D0F804E0C368224361450A60CB62BC
:10193000C1F828E002D14269CCF8302001224A6186
:101940000B69DB0703D00B6923F001030B6180F8FF
:10195000462080F83E2080F83F2080F8402080F824
:10196000412080F8422080F8432080F8442080F80D
:10197000452080F83D20002010BD000080B582B0D9
:101980000068B0F1804F15D042F60041C4F2010169
:1019900088420CD141F21800C4F20200016841F4FF
:1019A00000610160006800F400600190019802B0DD
:1019B00080BD00BF41F21800C4F20200416800225D
:1019C00041F0010141604068022100F001000090F7
:1019D00000981C20FFF738FB1C2002B0BDE88040B7
:1019E000FFF720BB90F83D1001291CBF0120704774
:1019F000022180F83D10006840F2FF72C168C4F215
:101A00000002904241F00101C16009DCB0F1804F59
:101A100012D040F20041C4F2000188420CD012E022
:101A200042F60041C4F20101884205D040F60001AF
:101A3000C4F20001884206D1816801F0070106293D
:101A400004BF00207047016841F0010101600020DF
:101A50007047000090F83C20012A4FF002026CD041
:101A600080B580F83D20D0F800C04FF67772DCF8E2
:101A7000083023EA0202CCF808200B684F2B29DC3F
:101A80001F2B45DD202B46D0302B44D0402B40F07F
:101A9000AF80D1F804E0C968DCF82030DCF8202001
:101AA00022F00102CCF82020DCF8182022F0F0020D
:101AB00042EA011123F00A0242EA0E02CCF81810A1
:101AC000CCF82020DCF8081041F0470121F030016B
:101AD00028E000BF6F2B33DDB3F5005F74D0B3F5A2
:101AE000805F21D0702B40F08380D1E901E3C96889
:101AF000DCF8082043EA0E0322F47F4243EA012186
:101B00001143CCF80810DCF8081041F0770109E027
:101B10000BB1102B6CD1DCF8081021F070011943C7
:101B200041F00701CCF808100022012180F83D1097
:101B3000002180F83C10BDE880401046704700BF8F
:101B4000502B21D0602B53D1D1F804E0C968DCF8C8
:101B50002030DCF8202022F01002CCF82020DCF825
:101B6000182022F4704242EA013123F0A00242EA36
:101B70000E12CCF81810CCF82020DCF8081041F038
:101B8000670121F01001CDE7D1F804E0C968DCF865
:101B90002030DCF8202022F00102CCF82020DCF8F4
:101BA000182022F0F00242EA011123F00A0242EA70
:101BB0000E02CCF81810CCF82020DCF8081041F008
:101BC000570121F02001ADE7D1E901E3C968DCF854
:101BD000082043EA0E0322F47F4243EA0121114325
:101BE000CCF80810DCF8081041F480419AE700BFF7
:101BF00001229AE77047000070B504460068C56886
:101C00000669B10716D515F0020113D06FF0020175
:101C10000161012121778069800703D02046FFF709
:101C2000E9FF05E0204600F0BBF8204600F03CFA52
:101C300000202077700719D515F0040016D0206811
:101C40006FF00401016102212177806910F4407F67
:101C500004D02046FFF7CEFF06E000BF204600F08C
:101C60009FF8204600F020FA00202077300717D593
:101C700015F0080014D020686FF0080101610421FC
:101C80002177C069800703D02046FFF7B3FF05E046
:101C9000204600F085F8204600F006FA0020207764
:101CA000F00619D515F0100016D020686FF010015D
:101CB000016108212177C06910F4407F04D02046DB
:101CC000FFF798FF06E000BF204600F069F82046C5
:101CD00000F0EAF900202077F00718BF15F00100A6
:101CE00002D1300609D412E020686FF001010161D1
:101CF000204600F049FA300609D515F0800006D0DC
:101D000020686FF0800101612046FFF74FFD7006EB
:101D100009D515F0400006D020686FF04001016140
:101D2000204600F053FAB00658BF70BD15F02000F1
:101D300008D021686FF0200220460A61BDE870409B
:101D4000FFF736BD70BD000080B586B0014640F695
:101D50000000C4F20100096800F5105291424FF0F2
:101D60000001CDE90411CDE9021101D006B080BD1A
:101D700041F21801C4F202010A6842F004020A604A
:101D8000096801F00401019101994FF44071029139
:101D900002210391059102A9FEF7C8FF06B080BD9C
:101DA0007047000090F83C30012B04BF02207047C0
:101DB0004FEAB202032A00F2F1802DE9F043DFE896
:101DC00002F003A53B7500BF036842F600461D6A9A
:101DD0001A6AC4F2010622F001021A621A465C680D
:101DE00052F818CFB3428E68D1F800E025F0020512
:101DF00045EA06050CD1CE68D1E9057824F4407493
:101E000025F00C0526F004063C43354344EA08045B
:101E10002CF0730747EA0E075C609F614F68096901
:101E20005F631D629F6947F008079F619F6927F004
:101E300004079F61A6E000BF036842F600461D6AE2
:101E40001A6AC4F2010622F480721A621A46D3F8A2
:101E500004C052F81CEFB3428E680C6825F400757C
:101E600045EA06250FD1CE68D1E90598360240F241
:101E7000FF4725F44065BE4335432CF4405748EAFC
:101E8000090647EA061C2EF073072743C3F804C06F
:101E9000DF614F680969DF631D62DF6947F008078A
:101EA000DF61DF6927F00407DF616BE0036842F65A
:101EB0000047D3F820C01A6AC4F2010722F4805206
:101EC0001A621A465C6852F81C5FD1F800E08E680E
:101ED000BB4204D14F6924F4804444EA87142CF4B3
:101EE000005747EA063725F4E64646EA0E265C60C8
:101EF000DE614E6809691E641F62DF6947F400678E
:101F0000DF61DF6927F48067DF613AE0036842F64A
:101F100000461D6A1A6AC4F2010622F010021A6213
:101F20001A46D3F804C052F8184FB3428E68D1F85D
:101F300000E025F0200545EA06150FD1CE68D1E96D
:101F400005986FF0400725F0C00507EA06163543EF
:101F50002CF4406748EA090647EA860C24F4E64474
:101F600044EA0E27C3F804C09F614F6809699F6364
:101F70001D629F6947F400679F619F6927F480672E
:101F80009F6109021368194311600021BDE8F04305
:101F9000002280F83C200846704700BF0121002243
:101FA00080F83C2008467047002804BF0120704795
:101FB00010B590F83D1031B9002180F83C1004466E
:101FC00000F070F82046022180F83D10016840F2D0
:101FD000FF740B68C4F2000442F6004CA142C4F244
:101FE000010C15DCB1F1804F1AD040F20042C4F26E
:101FF0000002914214D0A14218DCB1F1804F1DD0F3
:1020000040F20042C4F20002914217D01AE000BF31
:10201000614505D040F60002C4F200029142EAD1C7
:10202000826823F070031343A142E6DD614505D0C9
:1020300040F60002C4F20002914203D1026923F487
:1020400040731343846923F08002D0F804E0C3682E
:10205000224361450A60CB62C1F828E002D142699F
:10206000CCF8302001224A610B69DB0703D00B69F1
:1020700023F001030B6180F8462080F83E2080F8B1
:102080003F2080F8402080F8412080F8422080F8EE
:10209000432080F8442080F8452080F83D2000202F
:1020A00010BD00007047000070470000C1B1042956
:1020B00008D0082914BF41224022825C012A05D0A1
:1020C00016E000BF3F22825C012A11D102220829BA
:1020D00010D0042914BF80F8412080F83F200BE085
:1020E00090F83E20012A03D1022280F83E2003E02E
:1020F0000120704780F84020006801F01F01012294
:10210000036A8A4023EA02010162036A42F64441FB
:10211000C4F201011A43A1F14403984202620FD0B4
:1021200040F2FF71C4F20001884213DCB0F1804F2D
:102130001CD040F20041C4F20001884216D01CE0DD
:102140000A6842F400420A6040F2FF71C4F20001E2
:102150008842EBDD42F60041C4F20101884205D01D
:1021600040F60001C4F20001884206D1816801F006
:102170000701062904BF00207047016841F00101F2
:1021800001600020704700000068B0F1804F18BF68
:10219000704740F2A800C2F200000178012907D17F
:1021A00040F20000C2F200000169C06800F016B8F9
:1021B0000078022808D140F60040C4F201004FF434
:1021C00080510022FEF7BABE704700007047000041
:1021D000FEE70000FEE70000FEE700002DE9F04307
:1021E00081B040F2A809C2F20009D9F808200D46D2
:1021F00080469AB1D9F80C0000F0FAFCD9F8081022
:102200000646084600F0F4FC0146304600F0BEFBEE
:1022100000F0B2FCC9F8380002E000BFD9F838007D
:1022200040F20001C2F20001D1E90161081AD9F8B7
:102230004010C9F83C00471AC9F8447000F0D8FCB7
:102240000446384600F0D4FC0146284600F050FD14
:1022500005464046214600F04BFD294600F0FEFAB7
:102260000546C9F848003046294600F00DFE0446F0
:10227000C9F84C003046294600F0F0FA0546C9F886
:1022800050002046314600F059FB374630B986F001
:1022900000472046394600F058FB10B93C46C9F8C3
:1022A0004C702846314600F049FB30B986F00046B4
:1022B0002846314600F049FB10B93546C9F8506050
:1022C0002846002100F041FB07462846002100F087
:1022D0004AFB40F6000806460028C4F2010818BF71
:1022E0000126002F18BF012740464FF480613A466F
:1022F000FEF724FE40464FF400613246FEF71EFE14
:102300002046002100F02FFB06462046002100F069
:102310001CFB0746002818BF0127002E18BF012606
:1023200040464FF480513246FEF708FE40464FF4D7
:1023300000413A46FEF702FE25F0004000F038FC6E
:1023400040F2B011C2F200010D68686324F0004051
:1023500000F02EFCA863D9F83C00C9F8400001B099
:10236000BDE8F0837047000070470000FEF7F2BD43
:102370007047000040F2F810C2F20000FFF73CBCCA
:10238000FEE7000098B0FEF7F3FD00240120CDE940
:102390000544CDE90344009004904FF4E0104FF45D
:1023A00080310225099068461794CDE91544CDE99E
:1023B0000114CDE90751FEF7E3FF28B1EFF31080D8
:1023C00072B600BFFEE700BF0F20CDE90A054FF44B
:1023D0008060CDE90D040AA802210C94FEF7F2FEFC
:1023E00020B1EFF3108072B6FEE700BF4FF400405B
:1023F0004FF0020A169014A8CDF850A0FEF760FE28
:1024000020B1EFF3108072B6FEE700BF4FF0000975
:1024100041F21804CDE90299CDE90099C4F2020411
:10242000206840F6004840F0100020602068C4F2A8
:10243000010800F010000A900A98206808F58066EC
:1024400040F02000206020684FF4005100F0200090
:102450000A900A982068002240F00400206020685A
:102460004FF4005700F004000A900A98206840F0EA
:1024700008002060206800F008000A900A983046A2
:10248000FEF75CFD40464FF4E0510022FEF756FD9A
:10249000A8F5806528464FF41C410022FEF74EFD4A
:1024A00000976F464FF0010B30463946CDE901B930
:1024B000CDF80CA0FEF73AFC4FF4E050CDE9000B4C
:1024C00040463946CDE9029AFEF730FC4FF41C40F5
:1024D000CDE9000B28463946CDE9029AFEF726FCE5
:1024E0004FF4407000900020C1F21100CDE9010BC3
:1024F00040463946FEF71AFC172000210022FEF75D
:10250000A3FD1720FEF78EFD54F8040C002140F0C7
:10251000010044F8040C54F8040C002200F00100FF
:10252000009000980B20FEF78FFD0B20FEF77AFD40
:1025300040F21414C2F2000408F5C051204640F8DD
:10254000281F4FF480714FF46022C0E901910A21E5
:1025500080F80CB080F81490C2610161FEF7B2F807
:1025600020B1EFF3108072B6FEE700BF04F128053A
:1025700069462846CDE9009BCDF80890FDF726FF77
:1025800020B1EFF3108072B6FEE700BF012000908B
:102590000224694628460194FDF718FF20B1EFF3A5
:1025A000108072B6FEE700BF0094032469462846F7
:1025B0000194FDF70BFF28B1EFF3108072B600BF56
:1025C000FEE700BF00940424694628460194FDF705
:1025D000FDFE28B1EFF3108072B600BFFEE700BF2A
:1025E00000940524694628460194FDF7EFFE28B1C2
:1025F000EFF3108072B600BFFEE700BF0094062420
:10260000694628460194FDF7E1FE28B1EFF31080FA
:1026100072B600BFFEE700BF009407246946284653
:102620000194FDF7D3FE18B1EFF3108072B6FEE708
:1026300000940824694628460194FDF7C7FE18B1A6
:10264000EFF3108072B6FEE700940924694628462D
:102650000194FDF7BBFE18B1EFF3108072B6FEE7F0
:102660000A200190694628460094FDF7AFFE18B194
:10267000EFF3108072B6FEE740F2B010002108F5CB
:102680000052C2F200004723C7271791CDE9151168
:10269000CDE912110691C0E90023C0E90217C0E993
:1026A00004118161FFF7ECF820B1EFF3108072B6EE
:1026B000FEE700BF4FF48050149040F2B010C2F219
:1026C000000014A9FFF7C6F920B1EFF3108072B62D
:1026D000FEE700BF40F2B010C2F20000FFF764FC5A
:1026E00020B1EFF3108072B6FEE700BF40F2B010E9
:1026F000C2F2000012A9FFF783F818B1EFF31080BF
:1027000072B6FEE760200A900020CDE90B00CDE90B
:102710000D00CDE90F0040F2B010C2F200000AA98E
:102720000022FFF73FFB18B1EFF3108072B6FEE70F
:1027300040F2B010C2F200000AA90422FFF732FBF7
:1027400020B1EFF3108072B6FEE700BF4FF40050E7
:10275000059040F2B0100024C2F2000069460494D3
:10276000CDE90244CDE900440794FFF723F818B1FE
:10277000EFF3108072B6FEE740F2B010C2F2000034
:10278000FFF7E2FA40F2F810C2F200004FF0804189
:1027900042F20F730394CDE90144CDE90A44472284
:1027A00080E81600C0E903348461FFF769F818B1C6
:1027B000EFF3108072B6FEE74FF48050009040F2C5
:1027C000F810C2F200006946FFF744F920B1EFF3B8
:1027D000108072B6FEE700BF40F2F810C2F20000AF
:1027E0000AA9FFF70DF818B1EFF3108072B6FEE7F3
:1027F00040F2A804C2F2000404F1580128460A225B
:10280000FEF772F840F2F810C2F20000FFF7EAF8A3
:1028100040F2B015C2F2000528460021FFF746FC41
:1028200028460421FFF742FC40464FF48051012224
:1028300003E000BF40464FF40061FEF77FFB2069D4
:1028400001220128F6D0616B0129F3D000284FF056
:10285000000218BF0029F2D1ECE7000090EA010F56
:1028600048BF81F0004100F11683421A3CBF801A34
:1028700089184FEAD052A2EBD1534FF07F4C1CEA9B
:10288000410F18BF9CEA026F00F03B804FF0004CF4
:102890004CEA00204CEA012121FA03FC10EB0C0C5D
:1028A0001ED202F1FF325FEA1C2040EBC25038BF5B
:1028B00070471CF07F0F4FEA400C18BFBCF17F4FF0
:1028C00038BF7047C3F12003994008BF20F00100D2
:1028D000BCF17F4F38BF7047A0F1C04000F0CFBAC5
:1028E0004FEA3C00000A40EBC25028BF1CF0FF0F2B
:1028F0004FEA400CE6D018BFBCF17F4F38BF70479D
:10290000EAE79CEA026F05D010EA5C0F08BF00F00E
:102910000040704710B500F06CFA00BF64FBBE3E8B
:1029200010B500F0F5F80CBF0120002010BD10B567
:1029300000F0EEF814BF0120002010BD10B500F02B
:102940006FF98CBF0120002010BD10B500F068F9B0
:102950002CBF0120002010BD10B500F095F994BFE8
:102960000120002010BD10B500F08EF934BF012009
:10297000002010BD401058BFC0F14040491058BF62
:10298000C1F140418142EFF3008070474FF47F0C6A
:102990001CEAD0121EBF1CEAD11392EA0C0F93EA74
:1029A0000C0F00F0858090EA010F48BF42F480725E
:1029B00040F4000C41F400002CF07F4120F07F40F7
:1029C00000B5A2EB030281420FF2081CACEB504EA3
:1029D0009EF800E0C0F100004FEA4E0E00FB0EFC36
:1029E00038BF49004FEA2C1C0CFB0EF34FEACE1EF9
:1029F0000EEB635E4FEA112C0EFB0CFC4FEAC1217B
:102A00004FEA1C5300FB031102F5FA024FEA112CA6
:102A10000EFB0CFC4FEA01314FEADC4C00FB0C11C1
:102A200042EB2242C14228BF09184CEB03335DF848
:102A300004EB10EB410143EBC250B2F57C0F38BF01
:102A4000704729D512F0F00F1CBF00F1C04000F014
:102A500000407047008182838485868788898B8CBB
:102A60008D8E8F919293959697999A9C9D9FA0A2F7
:102A7000A3A5A7A8AAACAEB0B2B3B5B7B9BCBEC047
:102A8000C2C5C7C9CCCED1D4D7D9DCDFE2E6E9ECE8
:102A9000F0F3F7FAFE0000004FEA400C0CF1807CE6
:102AA000BCF17E4F28BF7047B0F1C04000F0E7B9DD
:102AB0000CEAD11390EA010F48BF42F480726245DC
:102AC00038BF634507D213F47F0F16D080EA0100A8
:102AD00000F00040704710B500F08BF9097EFC3E15
:102AE00000F005B880EA010000F00040704780EA7D
:102AF000010000F0004000F0C2B912F47F0F04BFE3
:102B00000248704780EA010000F0B9B90000C07FB8
:102B100050EA010C00F113801CF5000F58BFBCF502
:102B2000000F01D48842704707D710F5000F58BF37
:102B300011F5000F15D488427047894270471CF583
:102B4000000F04D5BCF5000FF7D5814270474FF058
:102B5000807C1CEB400F38BF1CEB410F01D281423F
:102B6000704710B500F045F9922449004FF000502D
:102B70004FF08051FFF7FEBE41000B0ED3F19E02D5
:102B800008D950F400034FEA032323FA02F048BFA8
:102B90004042704710B500F02CF900BF49922480E4
:102BA000002070476FF0004282EA2000704700006A
:102BB000C10DD1F19E0206DB4FEA002343F0004332
:102BC00023FA02F07047004207D54FEA4001B1F105
:102BD000FE4F02D24FF00000704710B500F009F927
:102BE00049922480002070476FEA2000704700005F
:102BF00010F0004148BF4042B0FA80F310FA03F2EF
:102C0000C3F19D030BD051EAC35101EB12205306CF
:102C100038BF704700F1010008BF20F00100704785
:102C200050EA010C00F113801CF5000F58BFBCF5F1
:102C3000000F01D48842704707D710F5000F58BF26
:102C400011F5000F15D488427047894270471CF572
:102C5000000F04D5BCF5000FF7D5814270474FF047
:102C6000807C1CEB400F38BF1CEB410F01D281422E
:102C7000704710B500F0BDF8922449004FF0805025
:102C80004FF00051FFF776BE50EA010C00F11380BF
:102C90001CF5000F58BFBCF5000F01D488427047E7
:102CA00007D710F5000F58BF11F5000F15D4884253
:102CB0007047894270471CF5000F04D5BCF5000F22
:102CC000F7D5814270474FF0807C1CEB400F38BF36
:102CD0001CEB410F01D28142704710B500F089F81A
:102CE000922449004FF000504FF08051FFF742BE50
:102CF0004FF47F0C1CEAD0121EBF1CEAD11392EADB
:102D00000C0F93EA0C0F00F0478090EA010F48BFC8
:102D100042F480724FF0004C4CEA00204CEA012152
:102D200002EB0302A0FB0113A2F50002002918BF69
:102D300043F001035B0028BF4FEA330342EB22421A
:102D40005FEA132C4CEBC2502EBFBCEB436FB2F5C5
:102D50007C0F70474FEA036CBCF1004F08BF20F0B6
:102D60000100B2F57C0F38BF70470BD582F0FF022F
:102D700012F5803FC8BF704700F1C040D8BF00F0D7
:102D80000040704700F5000C5FEA4C0C48BF7047EC
:102D9000B0F1C04000F073B80CEAD11390EA010F13
:102DA00048BF42F48072624538BF634504D280EA6E
:102DB000010000F00040704710B500F01AF800BFA5
:102DC0008900013E00F007B800F009B85FEA410C45
:102DD0005FEA1C6C08D080EA010000F050B85FEA9E
:102DE000400C5FEA1C6CF6D14FF00040A0F580006B
:102DF00070470EF1020E2EF0030E5EF8044B2442D3
:102E000004D44FEA4102B2F17F4F11D84FEA400398
:102E1000B3F17F4F0CD80ED14FEAD07C0CEB4C0CA9
:102E20000CF1020CB2F17F4F08BF4CEBD17C04E0F7
:102E30004FF0080C01E04FEAD17C0CEB4C0324FA74
:102E400003F404F00704B4F1040C06D20EEB840C76
:102E5000BDE810404CF0010C6047DFE80CF00708BB
:102E600002024FF00040A0F5800010BD084642006D
:102E700018BFD2F1807288BF00F0004010BDFF2162
:102E800041EAD050C005704790EA010F48BF81F079
:102E900000413FF5EAAC421A04D882F00042A0EBB0
:102EA000020011444FEAD052A2EBD1534FF07F4CB5
:102EB0001CEA410F18BF9CEA026F4AD04FF0004C49
:102EC0004CEA00204CEA012121FA03FCB0EB0C0C87
:102ED0000FD412F0FE0F36D05FEA4C001DD5001261
:102EE00040EBC25038BF70471CF03F0F18BF70470F
:102EF0000BE05FEA1C20A2F1010240EBC25038BF98
:102F000070471CF07F0F18BF7047C3F12003994032
:102F100014BF401E20F0010070474FEA12238008C2
:102F200008BF7047B0FA80FCA2EB0C02CCF1280C71
:102F300060FA0CF093EA122F04BF00EBC250704706
:102F40004FEAC3707047130A5FEADC1008BF70478E
:102F5000F6E79CEA026F04D010EA5C0F08BF00207D
:102F6000704710B5FFF745FF40DFF63E81F00040A7
:102F70007047000000000000000001020304060783
:102F80000809010202030405060708090A0B0C0DD3
:102F90000E0F1010B82F000800000020480000009D
:102FA0005001000800300008480000200008000020
:102FB0007001000800000000AC0D00000000484354
:102FC000370000006666C6400000A8410A00000005
:102FD000140000001E000000280000003200000065
:102FE0003C00000046000000500000005A000000B5
:102FF00064000000010000001000000000127A00D0
:04000005080000ED02
:00000001FF
